{
  "contractName": "MyToken",
  "abi": [
    {
      "inputs": [],
      "stateMutability": "nonpayable",
      "type": "constructor"
    },
    {
      "inputs": [
        {
          "internalType": "address",
          "name": "spender",
          "type": "address"
        },
        {
          "internalType": "uint256",
          "name": "allowance",
          "type": "uint256"
        },
        {
          "internalType": "uint256",
          "name": "needed",
          "type": "uint256"
        }
      ],
      "name": "ERC20InsufficientAllowance",
      "type": "error"
    },
    {
      "inputs": [
        {
          "internalType": "address",
          "name": "sender",
          "type": "address"
        },
        {
          "internalType": "uint256",
          "name": "balance",
          "type": "uint256"
        },
        {
          "internalType": "uint256",
          "name": "needed",
          "type": "uint256"
        }
      ],
      "name": "ERC20InsufficientBalance",
      "type": "error"
    },
    {
      "inputs": [
        {
          "internalType": "address",
          "name": "approver",
          "type": "address"
        }
      ],
      "name": "ERC20InvalidApprover",
      "type": "error"
    },
    {
      "inputs": [
        {
          "internalType": "address",
          "name": "receiver",
          "type": "address"
        }
      ],
      "name": "ERC20InvalidReceiver",
      "type": "error"
    },
    {
      "inputs": [
        {
          "internalType": "address",
          "name": "sender",
          "type": "address"
        }
      ],
      "name": "ERC20InvalidSender",
      "type": "error"
    },
    {
      "inputs": [
        {
          "internalType": "address",
          "name": "spender",
          "type": "address"
        }
      ],
      "name": "ERC20InvalidSpender",
      "type": "error"
    },
    {
      "anonymous": false,
      "inputs": [
        {
          "indexed": true,
          "internalType": "address",
          "name": "owner",
          "type": "address"
        },
        {
          "indexed": true,
          "internalType": "address",
          "name": "spender",
          "type": "address"
        },
        {
          "indexed": false,
          "internalType": "uint256",
          "name": "value",
          "type": "uint256"
        }
      ],
      "name": "Approval",
      "type": "event"
    },
    {
      "anonymous": false,
      "inputs": [
        {
          "indexed": true,
          "internalType": "address",
          "name": "buyer",
          "type": "address"
        },
        {
          "indexed": false,
          "internalType": "uint256",
          "name": "amount",
          "type": "uint256"
        },
        {
          "indexed": false,
          "internalType": "uint256",
          "name": "totalPrice",
          "type": "uint256"
        }
      ],
      "name": "TokenPurchase",
      "type": "event"
    },
    {
      "anonymous": false,
      "inputs": [
        {
          "indexed": true,
          "internalType": "address",
          "name": "selller",
          "type": "address"
        },
        {
          "indexed": false,
          "internalType": "uint256",
          "name": "amount",
          "type": "uint256"
        },
        {
          "indexed": false,
          "internalType": "uint256",
          "name": "totalPrice",
          "type": "uint256"
        }
      ],
      "name": "TokenSale",
      "type": "event"
    },
    {
      "anonymous": false,
      "inputs": [
        {
          "indexed": true,
          "internalType": "address",
          "name": "from",
          "type": "address"
        },
        {
          "indexed": true,
          "internalType": "address",
          "name": "to",
          "type": "address"
        },
        {
          "indexed": false,
          "internalType": "uint256",
          "name": "value",
          "type": "uint256"
        }
      ],
      "name": "Transfer",
      "type": "event"
    },
    {
      "inputs": [
        {
          "internalType": "address",
          "name": "owner",
          "type": "address"
        },
        {
          "internalType": "address",
          "name": "spender",
          "type": "address"
        }
      ],
      "name": "allowance",
      "outputs": [
        {
          "internalType": "uint256",
          "name": "",
          "type": "uint256"
        }
      ],
      "stateMutability": "view",
      "type": "function"
    },
    {
      "inputs": [
        {
          "internalType": "address",
          "name": "spender",
          "type": "address"
        },
        {
          "internalType": "uint256",
          "name": "value",
          "type": "uint256"
        }
      ],
      "name": "approve",
      "outputs": [
        {
          "internalType": "bool",
          "name": "",
          "type": "bool"
        }
      ],
      "stateMutability": "nonpayable",
      "type": "function"
    },
    {
      "inputs": [
        {
          "internalType": "address",
          "name": "account",
          "type": "address"
        }
      ],
      "name": "balanceOf",
      "outputs": [
        {
          "internalType": "uint256",
          "name": "",
          "type": "uint256"
        }
      ],
      "stateMutability": "view",
      "type": "function"
    },
    {
      "inputs": [
        {
          "internalType": "address",
          "name": "",
          "type": "address"
        }
      ],
      "name": "balances",
      "outputs": [
        {
          "internalType": "uint256",
          "name": "",
          "type": "uint256"
        }
      ],
      "stateMutability": "view",
      "type": "function"
    },
    {
      "inputs": [],
      "name": "decimals",
      "outputs": [
        {
          "internalType": "uint8",
          "name": "",
          "type": "uint8"
        }
      ],
      "stateMutability": "view",
      "type": "function"
    },
    {
      "inputs": [],
      "name": "name",
      "outputs": [
        {
          "internalType": "string",
          "name": "",
          "type": "string"
        }
      ],
      "stateMutability": "view",
      "type": "function"
    },
    {
      "inputs": [],
      "name": "owner",
      "outputs": [
        {
          "internalType": "address",
          "name": "",
          "type": "address"
        }
      ],
      "stateMutability": "view",
      "type": "function"
    },
    {
      "inputs": [],
      "name": "symbol",
      "outputs": [
        {
          "internalType": "string",
          "name": "",
          "type": "string"
        }
      ],
      "stateMutability": "view",
      "type": "function"
    },
    {
      "inputs": [],
      "name": "tokenPrice",
      "outputs": [
        {
          "internalType": "uint256",
          "name": "",
          "type": "uint256"
        }
      ],
      "stateMutability": "view",
      "type": "function"
    },
    {
      "inputs": [],
      "name": "totalSupply",
      "outputs": [
        {
          "internalType": "uint256",
          "name": "",
          "type": "uint256"
        }
      ],
      "stateMutability": "view",
      "type": "function"
    },
    {
      "inputs": [],
      "name": "totalSupplyLimit",
      "outputs": [
        {
          "internalType": "uint256",
          "name": "",
          "type": "uint256"
        }
      ],
      "stateMutability": "view",
      "type": "function"
    },
    {
      "inputs": [
        {
          "internalType": "address",
          "name": "to",
          "type": "address"
        },
        {
          "internalType": "uint256",
          "name": "value",
          "type": "uint256"
        }
      ],
      "name": "transfer",
      "outputs": [
        {
          "internalType": "bool",
          "name": "",
          "type": "bool"
        }
      ],
      "stateMutability": "nonpayable",
      "type": "function"
    },
    {
      "inputs": [
        {
          "internalType": "address",
          "name": "from",
          "type": "address"
        },
        {
          "internalType": "address",
          "name": "to",
          "type": "address"
        },
        {
          "internalType": "uint256",
          "name": "value",
          "type": "uint256"
        }
      ],
      "name": "transferFrom",
      "outputs": [
        {
          "internalType": "bool",
          "name": "",
          "type": "bool"
        }
      ],
      "stateMutability": "nonpayable",
      "type": "function"
    },
    {
      "inputs": [
        {
          "internalType": "uint256",
          "name": "amount",
          "type": "uint256"
        }
      ],
      "name": "buyTokens",
      "outputs": [],
      "stateMutability": "payable",
      "type": "function"
    },
    {
      "inputs": [
        {
          "internalType": "uint256",
          "name": "amount",
          "type": "uint256"
        }
      ],
      "name": "sellTokens",
      "outputs": [],
      "stateMutability": "nonpayable",
      "type": "function"
    }
  ],
  "bytecode": "0x608060405234801562000010575f80fd5b506040518060400160405280600781526020017f4d79546f6b656e000000000000000000000000000000000000000000000000008152506040518060400160405280600281526020017f4d5400000000000000000000000000000000000000000000000000000000000081525081600390816200008e919062000647565b508060049081620000a0919062000647565b5050503360055f6101000a81548173ffffffffffffffffffffffffffffffffffffffff021916908373ffffffffffffffffffffffffffffffffffffffff160217905550670de0b6b3a764000060068190555060646007819055506200012f60055f9054906101000a900473ffffffffffffffffffffffffffffffffffffffff166007546200013560201b60201c565b62000857565b5f73ffffffffffffffffffffffffffffffffffffffff168273ffffffffffffffffffffffffffffffffffffffff1603620001a8575f6040517fec442f050000000000000000000000000000000000000000000000000000000081526004016200019f91906200076e565b60405180910390fd5b620001bb5f8383620001bf60201b60201c565b5050565b5f73ffffffffffffffffffffffffffffffffffffffff168373ffffffffffffffffffffffffffffffffffffffff160362000213578060025f828254620002069190620007b6565b92505081905550620002e4565b5f805f8573ffffffffffffffffffffffffffffffffffffffff1673ffffffffffffffffffffffffffffffffffffffff1681526020019081526020015f20549050818110156200029f578381836040517fe450d38c000000000000000000000000000000000000000000000000000000008152600401620002969392919062000801565b60405180910390fd5b8181035f808673ffffffffffffffffffffffffffffffffffffffff1673ffffffffffffffffffffffffffffffffffffffff1681526020019081526020015f2081905550505b5f73ffffffffffffffffffffffffffffffffffffffff168273ffffffffffffffffffffffffffffffffffffffff16036200032d578060025f828254039250508190555062000377565b805f808473ffffffffffffffffffffffffffffffffffffffff1673ffffffffffffffffffffffffffffffffffffffff1681526020019081526020015f205f82825401925050819055505b8173ffffffffffffffffffffffffffffffffffffffff168373ffffffffffffffffffffffffffffffffffffffff167fddf252ad1be2c89b69c2b068fc378daa952ba7f163c4a11628f55a4df523b3ef83604051620003d691906200083c565b60405180910390a3505050565b5f81519050919050565b7f4e487b71000000000000000000000000000000000000000000000000000000005f52604160045260245ffd5b7f4e487b71000000000000000000000000000000000000000000000000000000005f52602260045260245ffd5b5f60028204905060018216806200045f57607f821691505b6020821081036200047557620004746200041a565b5b50919050565b5f819050815f5260205f209050919050565b5f6020601f8301049050919050565b5f82821b905092915050565b5f60088302620004d97fffffffffffffffffffffffffffffffffffffffffffffffffffffffffffffffff826200049c565b620004e586836200049c565b95508019841693508086168417925050509392505050565b5f819050919050565b5f819050919050565b5f6200052f620005296200052384620004fd565b62000506565b620004fd565b9050919050565b5f819050919050565b6200054a836200050f565b62000562620005598262000536565b848454620004a8565b825550505050565b5f90565b620005786200056a565b620005858184846200053f565b505050565b5b81811015620005ac57620005a05f826200056e565b6001810190506200058b565b5050565b601f821115620005fb57620005c5816200047b565b620005d0846200048d565b81016020851015620005e0578190505b620005f8620005ef856200048d565b8301826200058a565b50505b505050565b5f82821c905092915050565b5f6200061d5f198460080262000600565b1980831691505092915050565b5f6200063783836200060c565b9150826002028217905092915050565b6200065282620003e3565b67ffffffffffffffff8111156200066e576200066d620003ed565b5b6200067a825462000447565b62000687828285620005b0565b5f60209050601f831160018114620006bd575f8415620006a8578287015190505b620006b485826200062a565b86555062000723565b601f198416620006cd866200047b565b5f5b82811015620006f657848901518255600182019150602085019450602081019050620006cf565b8683101562000716578489015162000712601f8916826200060c565b8355505b6001600288020188555050505b505050505050565b5f73ffffffffffffffffffffffffffffffffffffffff82169050919050565b5f62000756826200072b565b9050919050565b62000768816200074a565b82525050565b5f602082019050620007835f8301846200075d565b92915050565b7f4e487b71000000000000000000000000000000000000000000000000000000005f52601160045260245ffd5b5f620007c282620004fd565b9150620007cf83620004fd565b9250828201905080821115620007ea57620007e962000789565b5b92915050565b620007fb81620004fd565b82525050565b5f606082019050620008165f8301866200075d565b620008256020830185620007f0565b620008346040830184620007f0565b949350505050565b5f602082019050620008515f830184620007f0565b92915050565b611b8880620008655f395ff3fe6080604052600436106100e7575f3560e01c80636c11bcd31161008957806395d89b411161005857806395d89b41146102f1578063a9059cbb1461031b578063bac21a2214610357578063dd62ed3e14610381576100e7565b80636c11bcd31461023957806370a08231146102615780637ff9b5961461029d5780638da5cb5b146102c7576100e7565b806323b872dd116100c557806323b872dd1461017b57806327e235e3146101b7578063313ce567146101f35780633610724e1461021d576100e7565b806306fdde03146100eb578063095ea7b31461011557806318160ddd14610151575b5f80fd5b3480156100f6575f80fd5b506100ff6103bd565b60405161010c919061141b565b60405180910390f35b348015610120575f80fd5b5061013b600480360381019061013691906114cc565b61044d565b6040516101489190611524565b60405180910390f35b34801561015c575f80fd5b5061016561046f565b604051610172919061154c565b60405180910390f35b348015610186575f80fd5b506101a1600480360381019061019c9190611565565b610478565b6040516101ae9190611524565b60405180910390f35b3480156101c2575f80fd5b506101dd60048036038101906101d891906115b5565b6104a6565b6040516101ea919061154c565b60405180910390f35b3480156101fe575f80fd5b506102076104bb565b60405161021491906115fb565b60405180910390f35b61023760048036038101906102329190611614565b6104c3565b005b348015610244575f80fd5b5061025f600480360381019061025a9190611614565b610840565b005b34801561026c575f80fd5b50610287600480360381019061028291906115b5565b610b9c565b604051610294919061154c565b60405180910390f35b3480156102a8575f80fd5b506102b1610be1565b6040516102be919061154c565b60405180910390f35b3480156102d2575f80fd5b506102db610be7565b6040516102e8919061164e565b60405180910390f35b3480156102fc575f80fd5b50610305610c0c565b604051610312919061141b565b60405180910390f35b348015610326575f80fd5b50610341600480360381019061033c91906114cc565b610c9c565b60405161034e9190611524565b60405180910390f35b348015610362575f80fd5b5061036b610cbe565b604051610378919061154c565b60405180910390f35b34801561038c575f80fd5b506103a760048036038101906103a29190611667565b610cc4565b6040516103b4919061154c565b60405180910390f35b6060600380546103cc906116d2565b80601f01602080910402602001604051908101604052809291908181526020018280546103f8906116d2565b80156104435780601f1061041a57610100808354040283529160200191610443565b820191905f5260205f20905b81548152906001019060200180831161042657829003601f168201915b5050505050905090565b5f80610457610d46565b9050610464818585610d4d565b600191505092915050565b5f600254905090565b5f80610482610d46565b905061048f858285610d5f565b61049a858585610df1565b60019150509392505050565b6008602052805f5260405f205f915090505481565b5f6012905090565b5f8111610505576040517f08c379a00000000000000000000000000000000000000000000000000000000081526004016104fc9061174c565b60405180910390fd5b8061050e61046f565b101561054f576040517f08c379a0000000000000000000000000000000000000000000000000000000008152600401610546906117b4565b60405180910390fd5b5f61056582600654610ee190919063ffffffff16565b9050803410156105aa576040517f08c379a00000000000000000000000000000000000000000000000000000000081526004016105a19061181c565b60405180910390fd5b61061b8260085f60055f9054906101000a900473ffffffffffffffffffffffffffffffffffffffff1673ffffffffffffffffffffffffffffffffffffffff1673ffffffffffffffffffffffffffffffffffffffff1681526020019081526020015f2054610f5890919063ffffffff16565b60085f60055f9054906101000a900473ffffffffffffffffffffffffffffffffffffffff1673ffffffffffffffffffffffffffffffffffffffff1673ffffffffffffffffffffffffffffffffffffffff1681526020019081526020015f20819055506106cd8260085f3373ffffffffffffffffffffffffffffffffffffffff1673ffffffffffffffffffffffffffffffffffffffff1681526020019081526020015f2054610f7e90919063ffffffff16565b60085f3373ffffffffffffffffffffffffffffffffffffffff1673ffffffffffffffffffffffffffffffffffffffff1681526020019081526020015f20819055503373ffffffffffffffffffffffffffffffffffffffff1660055f9054906101000a900473ffffffffffffffffffffffffffffffffffffffff1673ffffffffffffffffffffffffffffffffffffffff167fddf252ad1be2c89b69c2b068fc378daa952ba7f163c4a11628f55a4df523b3ef8460405161078c919061154c565b60405180910390a33373ffffffffffffffffffffffffffffffffffffffff167fcd60aa75dea3072fbc07ae6d7d856b5dc5f4eee88854f5b4abf7b680ef8bc50f83836040516107dc92919061183a565b60405180910390a28034111561083c573373ffffffffffffffffffffffffffffffffffffffff166108fc8234610812919061188e565b90811502906040515f60405180830381858888f1935050505015801561083a573d5f803e3d5ffd5b505b5050565b5f8111610882576040517f08c379a00000000000000000000000000000000000000000000000000000000081526004016108799061190b565b60405180910390fd5b8060085f3373ffffffffffffffffffffffffffffffffffffffff1673ffffffffffffffffffffffffffffffffffffffff1681526020019081526020015f20541015610902576040517f08c379a00000000000000000000000000000000000000000000000000000000081526004016108f990611973565b60405180910390fd5b5f61091882600654610ee190919063ffffffff16565b905061096a8260085f3373ffffffffffffffffffffffffffffffffffffffff1673ffffffffffffffffffffffffffffffffffffffff1681526020019081526020015f2054610f5890919063ffffffff16565b60085f3373ffffffffffffffffffffffffffffffffffffffff1673ffffffffffffffffffffffffffffffffffffffff1681526020019081526020015f2081905550610a1c8260085f60055f9054906101000a900473ffffffffffffffffffffffffffffffffffffffff1673ffffffffffffffffffffffffffffffffffffffff1673ffffffffffffffffffffffffffffffffffffffff1681526020019081526020015f2054610f7e90919063ffffffff16565b60085f60055f9054906101000a900473ffffffffffffffffffffffffffffffffffffffff1673ffffffffffffffffffffffffffffffffffffffff1673ffffffffffffffffffffffffffffffffffffffff1681526020019081526020015f208190555060055f9054906101000a900473ffffffffffffffffffffffffffffffffffffffff1673ffffffffffffffffffffffffffffffffffffffff163373ffffffffffffffffffffffffffffffffffffffff167fddf252ad1be2c89b69c2b068fc378daa952ba7f163c4a11628f55a4df523b3ef84604051610afc919061154c565b60405180910390a33373ffffffffffffffffffffffffffffffffffffffff167f7ceac0b8ee1aa05d6bffe30efcb415d68896c61a7fc61e16d6ec0a7056e93ab08383604051610b4c92919061183a565b60405180910390a23373ffffffffffffffffffffffffffffffffffffffff166108fc8290811502906040515f60405180830381858888f19350505050158015610b97573d5f803e3d5ffd5b505050565b5f805f8373ffffffffffffffffffffffffffffffffffffffff1673ffffffffffffffffffffffffffffffffffffffff1681526020019081526020015f20549050919050565b60065481565b60055f9054906101000a900473ffffffffffffffffffffffffffffffffffffffff1681565b606060048054610c1b906116d2565b80601f0160208091040260200160405190810160405280929190818152602001828054610c47906116d2565b8015610c925780601f10610c6957610100808354040283529160200191610c92565b820191905f5260205f20905b815481529060010190602001808311610c7557829003601f168201915b5050505050905090565b5f80610ca6610d46565b9050610cb3818585610df1565b600191505092915050565b60075481565b5f60015f8473ffffffffffffffffffffffffffffffffffffffff1673ffffffffffffffffffffffffffffffffffffffff1681526020019081526020015f205f8373ffffffffffffffffffffffffffffffffffffffff1673ffffffffffffffffffffffffffffffffffffffff1681526020019081526020015f2054905092915050565b5f33905090565b610d5a8383836001610fa9565b505050565b5f610d6a8484610cc4565b90507fffffffffffffffffffffffffffffffffffffffffffffffffffffffffffffffff8114610deb5781811015610ddc578281836040517ffb8f41b2000000000000000000000000000000000000000000000000000000008152600401610dd393929190611991565b60405180910390fd5b610dea84848484035f610fa9565b5b50505050565b5f73ffffffffffffffffffffffffffffffffffffffff168373ffffffffffffffffffffffffffffffffffffffff1603610e61575f6040517f96c6fd1e000000000000000000000000000000000000000000000000000000008152600401610e58919061164e565b60405180910390fd5b5f73ffffffffffffffffffffffffffffffffffffffff168273ffffffffffffffffffffffffffffffffffffffff1603610ed1575f6040517fec442f05000000000000000000000000000000000000000000000000000000008152600401610ec8919061164e565b60405180910390fd5b610edc838383611178565b505050565b5f808303610ef1575f9050610f52565b5f8284610efe91906119c6565b9050828482610f0d9190611a34565b14610f4d576040517f08c379a0000000000000000000000000000000000000000000000000000000008152600401610f4490611ad4565b60405180910390fd5b809150505b92915050565b5f82821115610f6a57610f69611af2565b5b8183610f76919061188e565b905092915050565b5f808284610f8c9190611b1f565b905083811015610f9f57610f9e611af2565b5b8091505092915050565b5f73ffffffffffffffffffffffffffffffffffffffff168473ffffffffffffffffffffffffffffffffffffffff1603611019575f6040517fe602df05000000000000000000000000000000000000000000000000000000008152600401611010919061164e565b60405180910390fd5b5f73ffffffffffffffffffffffffffffffffffffffff168373ffffffffffffffffffffffffffffffffffffffff1603611089575f6040517f94280d62000000000000000000000000000000000000000000000000000000008152600401611080919061164e565b60405180910390fd5b8160015f8673ffffffffffffffffffffffffffffffffffffffff1673ffffffffffffffffffffffffffffffffffffffff1681526020019081526020015f205f8573ffffffffffffffffffffffffffffffffffffffff1673ffffffffffffffffffffffffffffffffffffffff1681526020019081526020015f20819055508015611172578273ffffffffffffffffffffffffffffffffffffffff168473ffffffffffffffffffffffffffffffffffffffff167f8c5be1e5ebec7d5bd14f71427d1e84f3dd0314c0f7b2291e5b200ac8c7c3b92584604051611169919061154c565b60405180910390a35b50505050565b5f73ffffffffffffffffffffffffffffffffffffffff168373ffffffffffffffffffffffffffffffffffffffff16036111c8578060025f8282546111bc9190611b1f565b92505081905550611296565b5f805f8573ffffffffffffffffffffffffffffffffffffffff1673ffffffffffffffffffffffffffffffffffffffff1681526020019081526020015f2054905081811015611251578381836040517fe450d38c00000000000000000000000000000000000000000000000000000000815260040161124893929190611991565b60405180910390fd5b8181035f808673ffffffffffffffffffffffffffffffffffffffff1673ffffffffffffffffffffffffffffffffffffffff1681526020019081526020015f2081905550505b5f73ffffffffffffffffffffffffffffffffffffffff168273ffffffffffffffffffffffffffffffffffffffff16036112dd578060025f8282540392505081905550611327565b805f808473ffffffffffffffffffffffffffffffffffffffff1673ffffffffffffffffffffffffffffffffffffffff1681526020019081526020015f205f82825401925050819055505b8173ffffffffffffffffffffffffffffffffffffffff168373ffffffffffffffffffffffffffffffffffffffff167fddf252ad1be2c89b69c2b068fc378daa952ba7f163c4a11628f55a4df523b3ef83604051611384919061154c565b60405180910390a3505050565b5f81519050919050565b5f82825260208201905092915050565b5f5b838110156113c85780820151818401526020810190506113ad565b5f8484015250505050565b5f601f19601f8301169050919050565b5f6113ed82611391565b6113f7818561139b565b93506114078185602086016113ab565b611410816113d3565b840191505092915050565b5f6020820190508181035f83015261143381846113e3565b905092915050565b5f80fd5b5f73ffffffffffffffffffffffffffffffffffffffff82169050919050565b5f6114688261143f565b9050919050565b6114788161145e565b8114611482575f80fd5b50565b5f813590506114938161146f565b92915050565b5f819050919050565b6114ab81611499565b81146114b5575f80fd5b50565b5f813590506114c6816114a2565b92915050565b5f80604083850312156114e2576114e161143b565b5b5f6114ef85828601611485565b9250506020611500858286016114b8565b9150509250929050565b5f8115159050919050565b61151e8161150a565b82525050565b5f6020820190506115375f830184611515565b92915050565b61154681611499565b82525050565b5f60208201905061155f5f83018461153d565b92915050565b5f805f6060848603121561157c5761157b61143b565b5b5f61158986828701611485565b935050602061159a86828701611485565b92505060406115ab868287016114b8565b9150509250925092565b5f602082840312156115ca576115c961143b565b5b5f6115d784828501611485565b91505092915050565b5f60ff82169050919050565b6115f5816115e0565b82525050565b5f60208201905061160e5f8301846115ec565b92915050565b5f602082840312156116295761162861143b565b5b5f611636848285016114b8565b91505092915050565b6116488161145e565b82525050565b5f6020820190506116615f83018461163f565b92915050565b5f806040838503121561167d5761167c61143b565b5b5f61168a85828601611485565b925050602061169b85828601611485565b9150509250929050565b7f4e487b71000000000000000000000000000000000000000000000000000000005f52602260045260245ffd5b5f60028204905060018216806116e957607f821691505b6020821081036116fc576116fb6116a5565b5b50919050565b7f416d6f756e74206d757473206265206772656174686572207468616e203000005f82015250565b5f611736601e8361139b565b915061174182611702565b602082019050919050565b5f6020820190508181035f8301526117638161172a565b9050919050565b7f4e6f7420656e6f75676820746f6b656e7320617661696c61626c6500000000005f82015250565b5f61179e601b8361139b565b91506117a98261176a565b602082019050919050565b5f6020820190508181035f8301526117cb81611792565b9050919050565b7f496e73756666696369656e742066756e647300000000000000000000000000005f82015250565b5f61180660128361139b565b9150611811826117d2565b602082019050919050565b5f6020820190508181035f830152611833816117fa565b9050919050565b5f60408201905061184d5f83018561153d565b61185a602083018461153d565b9392505050565b7f4e487b71000000000000000000000000000000000000000000000000000000005f52601160045260245ffd5b5f61189882611499565b91506118a383611499565b92508282039050818111156118bb576118ba611861565b5b92915050565b7f416d6f756e74206d757374206265206772656174686572207468616e203000005f82015250565b5f6118f5601e8361139b565b9150611900826118c1565b602082019050919050565b5f6020820190508181035f830152611922816118e9565b9050919050565b7f496e73756666696369656e7420746f6b656e2062616c616e63650000000000005f82015250565b5f61195d601a8361139b565b915061196882611929565b602082019050919050565b5f6020820190508181035f83015261198a81611951565b9050919050565b5f6060820190506119a45f83018661163f565b6119b1602083018561153d565b6119be604083018461153d565b949350505050565b5f6119d082611499565b91506119db83611499565b92508282026119e981611499565b91508282048414831517611a00576119ff611861565b5b5092915050565b7f4e487b71000000000000000000000000000000000000000000000000000000005f52601260045260245ffd5b5f611a3e82611499565b9150611a4983611499565b925082611a5957611a58611a07565b5b828204905092915050565b7f536166654d6174683a206d756c7469706c69636174696f6e206f766572666c6f5f8201527f7700000000000000000000000000000000000000000000000000000000000000602082015250565b5f611abe60218361139b565b9150611ac982611a64565b604082019050919050565b5f6020820190508181035f830152611aeb81611ab2565b9050919050565b7f4e487b71000000000000000000000000000000000000000000000000000000005f52600160045260245ffd5b5f611b2982611499565b9150611b3483611499565b9250828201905080821115611b4c57611b4b611861565b5b9291505056fea2646970667358221220346893ed1030950ae79d243040dc209b8bb490d7a88dbb2fe68e1661a43a0c4764736f6c63430008140033",
  "immutableReferences": {},
  "source": "// SPDX-License-Identifier: MIT\r\npragma solidity ^0.8.20;\r\n\r\n//Import of OpenZepelllin libraries\r\nimport \"@openzeppelin/contracts/token/ERC20/ERC20.sol\";\r\n\r\nlibrary SafeMath{\r\n    // Substraction\r\n    function sub(uint256 a, uint256 b) internal pure returns (uint256) {\r\n        assert(b <= a);\r\n        return a - b;\r\n    }\r\n    // Add\r\n    function add(uint256 a, uint256 b) internal pure returns (uint256) {\r\n    uint256 c = a + b;\r\n        assert(c >= a);\r\n        return c;\r\n    }\r\n    // Multiplicaion\r\n    function mul(uint256 a, uint256 b) internal pure returns (uint256) {\r\n        if (a == 0) {\r\n        return 0;\r\n    }\r\n        uint256 c = a * b;\r\n        require(c / a == b, \"SafeMath: multiplication overflow\");\r\n        return c;\r\n        }\r\n}\r\n\r\n\r\ncontract MyToken is ERC20 {\r\n    using SafeMath for uint256;\r\n\r\n    address public owner;\r\n    uint256 public tokenPrice;\r\n    uint256 public totalSupplyLimit;\r\n    mapping(address => uint256) public balances;\r\n\r\n    event TokenPurchase(address indexed buyer, uint256 amount, uint256 totalPrice);\r\n    event TokenSale(address indexed selller, uint256 amount, uint256 totalPrice);\r\n\r\n    constructor() ERC20(\"MyToken\", \"MT\") {\r\n        \r\n        owner= msg.sender;\r\n        tokenPrice = 1 * 1 ether; // 1 token= 1 ether(1 dolar)\r\n        totalSupplyLimit = 100 ; // maximun amount of tokens\r\n        // Token creation\r\n        _mint(owner, totalSupplyLimit);\r\n    }\r\n\r\n    //Buy tokens\r\n    function buyTokens(uint256 amount) external payable{\r\n        require(amount>0, 'Amount muts be greather than 0');\r\n        require(totalSupply() >= amount, 'Not enough tokens available');\r\n        uint256 totalPrice = tokenPrice.mul(amount);\r\n        require(msg.value >= totalPrice, \"Insufficient funds\");\r\n\r\n        balances[owner] = balances[owner].sub(amount);\r\n        balances[msg.sender] = balances[msg.sender].add(amount);\r\n        emit Transfer(owner, msg.sender,amount);\r\n        emit TokenPurchase(msg.sender, amount, totalPrice);\r\n\r\n        //  return change\r\n        if (msg.value > totalPrice) {\r\n            payable(msg.sender).transfer(msg.value - totalPrice);\r\n        }\r\n    }\r\n\r\n    function sellTokens(uint256 amount) external{\r\n        require(amount>0, \"Amount must be greather than 0\");\r\n        require(balances[msg.sender] >= amount, \"Insufficient token balance\");\r\n\r\n        uint256 totalPrice= tokenPrice.mul(amount);\r\n        balances[msg.sender]= balances [msg.sender].sub(amount);\r\n        balances[owner]=balances[owner].add(amount);\r\n\r\n        emit Transfer(msg.sender, owner, amount);\r\n        emit TokenSale(msg.sender,amount, totalPrice);\r\n\r\n        payable(msg.sender).transfer(totalPrice);\r\n    }\r\n}",
  "sourcePath": "C:\\Users\\XMF5814\\Documents\\blockchain\\DApp_ERC20\\ERC20_truffle\\contracts\\Mytoken.sol",
  "compiler": {
    "name": "solc",
    "version": "0.8.20+commit.a1b79de6.Emscripten.clang"
  },
  "schemaVersion": "3.4.16",
  "updatedAt": "2024-03-13T21:26:51.597Z",
  "devdoc": {
    "errors": {
      "ERC20InsufficientAllowance(address,uint256,uint256)": [
        {
          "details": "Indicates a failure with the `spender`s `allowance`. Used in transfers.",
          "params": {
            "allowance": "Amount of tokens a `spender` is allowed to operate with.",
            "needed": "Minimum amount required to perform a transfer.",
            "spender": "Address that may be allowed to operate on tokens without being their owner."
          }
        }
      ],
      "ERC20InsufficientBalance(address,uint256,uint256)": [
        {
          "details": "Indicates an error related to the current `balance` of a `sender`. Used in transfers.",
          "params": {
            "balance": "Current balance for the interacting account.",
            "needed": "Minimum amount required to perform a transfer.",
            "sender": "Address whose tokens are being transferred."
          }
        }
      ],
      "ERC20InvalidApprover(address)": [
        {
          "details": "Indicates a failure with the `approver` of a token to be approved. Used in approvals.",
          "params": {
            "approver": "Address initiating an approval operation."
          }
        }
      ],
      "ERC20InvalidReceiver(address)": [
        {
          "details": "Indicates a failure with the token `receiver`. Used in transfers.",
          "params": {
            "receiver": "Address to which tokens are being transferred."
          }
        }
      ],
      "ERC20InvalidSender(address)": [
        {
          "details": "Indicates a failure with the token `sender`. Used in transfers.",
          "params": {
            "sender": "Address whose tokens are being transferred."
          }
        }
      ],
      "ERC20InvalidSpender(address)": [
        {
          "details": "Indicates a failure with the `spender` to be approved. Used in approvals.",
          "params": {
            "spender": "Address that may be allowed to operate on tokens without being their owner."
          }
        }
      ]
    },
    "events": {
      "Approval(address,address,uint256)": {
        "details": "Emitted when the allowance of a `spender` for an `owner` is set by a call to {approve}. `value` is the new allowance."
      },
      "Transfer(address,address,uint256)": {
        "details": "Emitted when `value` tokens are moved from one account (`from`) to another (`to`). Note that `value` may be zero."
      }
    },
    "kind": "dev",
    "methods": {
      "allowance(address,address)": {
        "details": "See {IERC20-allowance}."
      },
      "approve(address,uint256)": {
        "details": "See {IERC20-approve}. NOTE: If `value` is the maximum `uint256`, the allowance is not updated on `transferFrom`. This is semantically equivalent to an infinite approval. Requirements: - `spender` cannot be the zero address."
      },
      "balanceOf(address)": {
        "details": "See {IERC20-balanceOf}."
      },
      "decimals()": {
        "details": "Returns the number of decimals used to get its user representation. For example, if `decimals` equals `2`, a balance of `505` tokens should be displayed to a user as `5.05` (`505 / 10 ** 2`). Tokens usually opt for a value of 18, imitating the relationship between Ether and Wei. This is the default value returned by this function, unless it's overridden. NOTE: This information is only used for _display_ purposes: it in no way affects any of the arithmetic of the contract, including {IERC20-balanceOf} and {IERC20-transfer}."
      },
      "name()": {
        "details": "Returns the name of the token."
      },
      "symbol()": {
        "details": "Returns the symbol of the token, usually a shorter version of the name."
      },
      "totalSupply()": {
        "details": "See {IERC20-totalSupply}."
      },
      "transfer(address,uint256)": {
        "details": "See {IERC20-transfer}. Requirements: - `to` cannot be the zero address. - the caller must have a balance of at least `value`."
      },
      "transferFrom(address,address,uint256)": {
        "details": "See {IERC20-transferFrom}. Emits an {Approval} event indicating the updated allowance. This is not required by the EIP. See the note at the beginning of {ERC20}. NOTE: Does not update the allowance if the current allowance is the maximum `uint256`. Requirements: - `from` and `to` cannot be the zero address. - `from` must have a balance of at least `value`. - the caller must have allowance for ``from``'s tokens of at least `value`."
      }
    },
    "version": 1
  },
  "userdoc": {
    "kind": "user",
    "methods": {},
    "version": 1
  }
}